:100000000C945D000C9485000C9485000C94850084
:100010000C9485000C9485000C9485000C9485004C
:100020000C9485000C9485000C9485000C9485003C
:100030000C9485000C9485000C9485000C9485002C
:100040000C9426030C9485000C94F4020C94CE02BC
:100050000C9485000C9485000C9485000C9485000C
:100060000C9485000C94850000000008000201003B
:100070000003040700000000000000000000000072
:10008000250028002B0000000000240027002A0083
:10009000040404040404040402020202020203032E
:1000A0000303030301020408102040800102040836
:1000B0001020010204081020700311241FBECFEF8E
:1000C000D8E0DEBFCDBF11E0A0E0B1E0E2ECFBE0A4
:1000D00002C005900D92AC32B107D9F722E0ACE234
:1000E000B1E001C01D92A335B207E1F710E0CDE504
:1000F000D0E004C02197FE010E94D905CC35D1077C
:10010000C9F70E949D030C94DF050C94000090E059
:10011000FC01EC55FF4F249180579F4FFC018491C7
:10012000882399F090E0880F991FFC01EA57FF4F50
:10013000A591B491FC01E458FF4F859194918FB73C
:10014000F894EC91E22BEC938FBF0895AF92BF929D
:10015000CF92DF92EF92FF920F931F93CF93DF9393
:100160006C017B018B01040F151FEB015E01AE18C2
:10017000BF08C017D10759F06991D601ED91FC91E4
:100180000190F081E02DC6010995892B79F7C50111
:10019000DF91CF911F910F91FF90EF90DF90CF9063
:1001A000BF90AF900895FC01538D448D252F30E012
:1001B000842F90E0821B930B541710F0CF96089574
:1001C00001970895FC01918D828D981761F0A28DA1
:1001D000AE0FBF2FB11D5D968C91928D9F5F9F7367
:1001E000928F90E008958FEF9FEF0895FC01918D1D
:1001F000828D981731F0828DE80FF11D858D90E08A
:1002000008958FEF9FEF0895FC01918D228D892F26
:1002100090E0805C9F4F821B91098F73992708950E
:1002200080E591E00E94040121E0892B09F420E09F
:10023000822F089580E090E0892B29F00E94100120
:1002400081110C9400000895FC01A48DA80FB92F12
:10025000B11DA35ABF4F2C91848D90E001968F73EE
:100260009927848FA689B7892C93A089B1898C910D
:10027000837080648C93938D848D981306C002885C
:10028000F389E02D80818F7D80830895EF92FF9226
:100290000F931F93CF93DF93EC0181E0888F9B8DA9
:1002A0008C8D98131AC0E889F989808185FF15C063
:1002B0009FB7F894EE89FF896083E889F989808186
:1002C0008370806480839FBF81E090E0DF91CF9155
:1002D0001F910F91FF90EF900895F62E0B8D10E077
:1002E0000F5F1F4F0F731127E02E8C8D8E110CC0E6
:1002F0000FB607FCFACFE889F989808185FFF5CF31
:10030000CE010E942401F1CFEB8DEC0FFD2FF11DEA
:10031000E35AFF4FF0829FB7F8940B8FEA89FB896D
:1003200080818062CFCFCF93DF93EC01888D8823CB
:10033000B9F0AA89BB89E889F9898C9185FD03C048
:10034000808186FD0DC00FB607FCF7CF8C9185FF2D
:10035000F2CF808185FFEDCFCE010E942401E9CF4D
:10036000DF91CF910895CF92DF92EF92FF921F938A
:10037000CF93DF936C017C0110E0C62FD0E0C70162
:100380008C199D098C179D074CF4F70161917F0131
:1003900080E591E00E944601180FF1CF80E591E0E1
:1003A0000E949301219781E01C171D0609F080E04F
:1003B000DF91CF911F91FF90EF90DF90CF90089544
:1003C000EDEEF1E09EE391831282638391E09483EA
:1003D00085836095681B66838CE3878367E08EEE78
:1003E00091E00C94B30190E0FC01E859FF4F249197
:1003F000FC01EC55FF4F3491FC01E057FF4FE491B5
:10040000EE23C9F0222339F0233001F1A8F4213082
:1004100019F1223029F1F0E0EE0FFF1FE458FF4FF1
:10042000A591B4918FB7F894EC91611126C03095E5
:100430003E233C938FBF08952730A9F02830C9F0A0
:10044000243049F7809180008F7D03C08091800027
:100450008F7780938000DFCF84B58F7784BDDBCF2B
:1004600084B58F7DFBCF8091B0008F778093B000F3
:10047000D2CF8091B0008F7DF9CF3E2BDACF3FB73E
:10048000F8948091310190913201A0913301B091A3
:10049000340126B5A89B05C02F3F19F00196A11D78
:1004A000B11D3FBFBA2FA92F982F8827BC01CD01BE
:1004B000620F711D811D911D42E0660F771F881F1D
:1004C000991F4A95D1F70895CF93DF9390E0FC01EF
:1004D000EC55FF4F249180579F4FFC018491882356
:1004E00009F12223F9F0622F70E0AB01415051096C
:1004F00042235723452BB1F490E0880F991FFC014C
:10050000EA57FF4FC591D491FC01E458FF4FA591E4
:10051000B4918881822341F4EC912E2339F4DF9148
:10052000CF9108958FEFFBCF81E0F9CF82E0F7CF35
:10053000CF92DF92EF92FF920F931F93CF93DF93AF
:1005400003E111E081E0E82E81E0F82E9DE0C92E64
:1005500091E0D92EF80181918F01811115C0F6012A
:10056000D1916F01D23080F4F701C1917F018C2FBE
:100570000E946402813019F08C2F0E9487006D2F39
:100580008C2F0E94F301E6CF80E0DF91CF911F9185
:100590000F91FF90EF90DF90CF9008951F920F92F0
:1005A0000FB60F9211242F933F934F935F936F9346
:1005B0007F938F939F93AF93BF93EF93FF9380E5C8
:1005C00091E00E942401FF91EF91BF91AF919F9123
:1005D0008F917F916F915F914F913F912F910F90EC
:1005E0000FBE0F901F9018951F920F920FB60F928B
:1005F00011242F938F939F93EF93FF93E0916001CA
:10060000F09161018081E0916601F091670182FDC6
:100610001BC09081809169018F5F8F7320916A0167
:10062000821741F0E0916901F0E0E05BFE4F958FA9
:1006300080936901FF91EF919F918F912F910F907E
:100640000FBE0F901F9018958081F4CF1F920F92CC
:100650000FB60F9211242F933F938F939F93AF93D5
:10066000BF9380912D0190912E01A0912F01B09107
:10067000300130912C0123E0230F2D3758F50196DE
:10068000A11DB11D20932C0180932D0190932E016B
:10069000A0932F01B09330018091310190913201EC
:1006A000A0913301B09134010196A11DB11D809339
:1006B000310190933201A0933301B0933401BF9183
:1006C000AF919F918F913F912F910F900FBE0F90FF
:1006D0001F90189526E8230F0296A11DB11DD2CFB9
:1006E000E0E5F1E01382128288EE93E0A0E0B0E052
:1006F00084839583A683B7838DE191E09183808382
:1007000085EC90E09587848784EC90E097878687D6
:1007100080EC90E0918B808B81EC90E0938B828BCE
:1007200082EC90E0958B848B86EC90E0978B868BA7
:10073000118E128E138E148E0895CF93DF93CDB742
:10074000DEB7789484B5826084BD84B5816084BD51
:1007500085B5826085BD85B5816085BD80916E005F
:10076000816080936E001092810080918100826090
:1007700080938100809181008160809381008091CD
:1007800080008160809380008091B10084608093BC
:10079000B1008091B00081608093B00080917A00B8
:1007A000846080937A0080917A00826080937A00DE
:1007B00080917A00816080937A0080917A008068CD
:1007C00080937A001092C10080E28093ED01E09165
:1007D0006001F091610182E08083E0915C01F09121
:1007E0005D011082E0915E01F0915F0180E1808304
:1007F00010926801E0916401F091650186E08083C8
:10080000E0916201F0916301808180618083E091D9
:100810006201F0916301808188608083E0916201D0
:10082000F0916301808180688083E0916201F091A2
:10083000630180818F7D80830E94980299249A941D
:1008400070E0A72E70E0B72E53E0852E6BEA762E6F
:1008500080E591E00E940401181619060CF00BC106
:10086000C0904F01C11007C120E820933002612CD5
:10087000D12C10E000E080E591E00E940401181600
:1008800019060CF06DC080E591E00E94E2000115B0
:10089000110569F58E3329F480933102D12C01E0E2
:1008A00010E06110E8CF80E591E00E940401892BFF
:1008B00011F74AE0E42EF12C80E591E00E9404015A
:1008C00018161906C4F20E943F021B012C010E9457
:1008D0003F026219730984099509683E73408105D6
:1008E0009105A8F331E0E31AF10831F7C4CF98017C
:1008F000215031092330310540F4F801EF5CFD4F00
:100900008083D80E0F5F1F4FCCCF2091340230E090
:10091000A9014D5F5F4F401751077CF7B9016B5F2D
:100920007F4FA9014C5F5F4F0417150759F4F80179
:10093000EF5CFD4F80838B01D1948D11B2CFCC241D
:10094000C394AFCF8B018C3309F0ABCFFB01EF5CCD
:10095000FD4F808389010A5F1F4F662463948BCF0C
:100960006620B9F0CC20B1F08091320280930E0263
:100970008091340280930F02E0E1F2E030E020E069
:1009800090E02817390734F445A141932F5F3F4F7A
:10099000F8CFC12CC0924F0110910E0210930001AC
:1009A00080910F0280934D01A0E1B2E0E5E3F1E018
:1009B00090E09F0125533140281739071CF42D91F1
:1009C0002193F7CF80E591E00E94040118161906E3
:1009D0002CF480E591E00E94E200F4CF10924E01E9
:1009E000C11004C0612F81E00E94E001612F80E00E
:1009F0000E94E00180914F01882309F4C6C08091D4
:100A000000018434E1F1853509F44DC08034E9F505
:100A100000914D01802F682D0E94CD05911135C0A8
:100A2000079D012D1124069510E035E3E32E31E0FA
:100A3000F32ED12CC12CC016D1063CF5F7018181D3
:100A4000811123C05280F1E0F515F8F0D7016C90C8
:100A5000862D0E946402813019F0862D0E94870045
:100A6000652D862D0E94F301BFEFCB1ADB0AE3E070
:100A7000EE0EF11CE0CFB1E0B0934E01BBCF809100
:100A80004D01811102C00E94980210924F01A114E1
:100A9000B10409F4DDCE0E941001882309F4D4CEFC
:100AA0000E940000D1CE0DB71EB780914D0190E09D
:100AB000880F991F2DB73EB7281B390B0FB6F89436
:100AC0003EBF0FBE2DBF8DB79EB701967C0185E35B
:100AD00091E0F70160914D019C012553314062176F
:100AE000130601F1FCF0DC012D91CD012830B8F4A2
:100AF000206420937C0020917A00206420937A0067
:100B000020917A0026FDFCCF309178002091790069
:100B1000232732272327208331833296DBCF90820D
:100B20009182FBCF40910001660FBEE3B093EE01CE
:100B30001092EF014093F0016093F101460FEDEE4A
:100B4000F1E0862F90E09F012D5E31402817390794
:100B50003CF4D7012D917D012583420F3196F3CFCF
:100B6000FC01EE50FE4F419540838D509E4F2CE38B
:100B7000FC0120836A5F8EEE91E00E94B3010FB604
:100B8000F8941EBF0FBE0DBF80CF80914E01882309
:100B900009F47DCF10924E017ACF991B79E004C001
:100BA000991F961708F0961B881F7A95C9F78095AC
:100BB0000895EE0FFF1F0590F491E02D0994F8942D
:020BC000FFCF65
:100BC200FF02030405060708090A0B0C0D000101C8
:100BD200010101000000000000000000004601A623
:0C0BE20000D30093010401E200F60000C3
:00000001FF
