:100000000C9462000C948A000C948A000C948A0070
:100010000C948A000C948A000C948A000C948A0038
:100020000C948A000C948A000C948A000C948A0028
:100030000C948A000C948A000C948A000C948A0018
:100040000C9449040C948A000C9417040C94F1034A
:100050000C948A000C948A000C948A000C948A00F8
:100060000C948A000C948A000000000023002600F3
:10007000290000000008000201000003040700003E
:1000800000000000000000000000250028002B00F8
:1000900000000000240027002A00040404040404D3
:1000A0000404020202020202030303030303010227
:1000B00004081020408001020408102001020408F6
:1000C0001020930411241FBECFEFD8E0DEBFCDBFB8
:1000D00011E0A0E0B1E0EEEFFCE002C005900D926F
:1000E000A834B107D9F722E0A8E4B1E001C01D921D
:1000F000AF36B207E1F710E0C2E6D0E004C02197C6
:10010000FE010E947706C136D107C9F70E94C004DC
:100110000C947D060C940000AF92BF92CF92DF92B8
:10012000EF92FF920F931F93CF93DF936C017B01AC
:100130008B01040F151FEB015E01AE18BF08C0173D
:10014000D10759F06991D601ED91FC910190F081B0
:10015000E02DC6010995892B79F7C501DF91CF9173
:100160001F910F91FF90EF90DF90CF90BF90AF90D5
:100170000895FC01538D448D252F30E0842F90E0AD
:10018000821B930B541710F0CF9608950197089592
:10019000FC01918D828D981761F0A28DAE0FBF2F5B
:1001A000B11D5D968C91928D9F5F9F73928F90E0B1
:1001B00008958FEF9FEF0895FC01918D828D981720
:1001C00031F0828DE80FF11D858D90E008958FEF5D
:1001D0009FEF0895FC01918D228D892F90E0805C26
:1001E0009F4F821B91098F73992708958CE691E0A8
:1001F0000E94EA0021E0892B09F420E0822F089573
:1002000080E090E0892B29F00E94F60081110C9487
:1002100000000895FC01A48DA80FB92FB11DA35AA9
:10022000BF4F2C91848D90E001968F739927848F16
:10023000A689B7892C93A089B1898C918370806439
:100240008C93938D848D981306C00288F389E02DDA
:1002500080818F7D80830895EF92FF920F931F938B
:10026000CF93DF93EC0181E0888F9B8D8C8D981369
:100270001AC0E889F989808185FF15C09FB7F89475
:10028000EE89FF896083E889F989808183708064C1
:1002900080839FBF81E090E0DF91CF911F910F910C
:1002A000FF90EF900895F62E0B8D10E00F5F1F4F1B
:1002B0000F731127E02E8C8D8E110CC00FB607FC2A
:1002C000FACFE889F989808185FFF5CFCE010E94B8
:1002D0000A01F1CFEB8DEC0FFD2FF11DE35AFF4F1B
:1002E000F0829FB7F8940B8FEA89FB898081806246
:1002F000CFCFCF93DF93EC01888D8823B9F0AA8903
:10030000BB89E889F9898C9185FD03C0808186FDD0
:100310000DC00FB607FCF7CF8C9185FFF2CF80811F
:1003200085FFEDCFCE010E940A01E9CFDF91CF9189
:100330000895CF92DF92EF92FF921F93CF93DF93B6
:100340006C017C0110E0C62FD0E0C7018C199D091B
:100350008C179D074CF4F70161917F018CE691E0C9
:100360000E942C01180FF1CF8CE691E00E947901D8
:10037000219781E01C171D0609F080E0DF91CF91E5
:100380001F91FF90EF90DF90CF900895E9E0F2E0A9
:100390009EE391831282638391E0948385836095C9
:1003A000681B66838CE3878367E08AE092E00C94A5
:1003B0009901833081F028F4813099F08230A9F0DE
:1003C00008958730A9F08830C9F08430B1F4809165
:1003D00080008F7D03C0809180008F7780938000A4
:1003E000089584B58F7784BD089584B58F7DFBCF44
:1003F0008091B0008F778093B00008958091B00015
:100400008F7DF9CFCF93DF9390E0FC01E255FF4F52
:10041000249186569F4FFC0184918823C9F090E077
:10042000880F991FFC01E057FF4FA591B491FC0183
:10043000EA57FF4FC591D49161110DC09FB7F89451
:100440008C91209582238C938881282328839FBFB9
:10045000DF91CF910895623051F49FB7F8943C91A9
:10046000822F809583238C93E8812E2BEFCF8FB73B
:10047000F894EC912E2B2C938FBFEACF3FB7F894D2
:1004800080914D0190914E01A0914F01B09150018A
:1004900026B5A89B05C02F3F19F00196A11DB11DDF
:1004A0003FBFBA2FA92F982F8827BC01CD01620F1B
:1004B000711D811D911D42E0660F771F881F991FD6
:1004C0004A95D1F70895CF93DF9390E0FC01E25570
:1004D000FF4F249186569F4FFC018491882309F198
:1004E0002223F9F0622F70E0AB0141505109422301
:1004F0005723452BB1F490E0880F991FFC01E0577A
:10050000FF4FC591D491FC01EA57FF4FA591B491DB
:100510008881822341F4EC912E2339F4DF91CF912D
:1005200008958FEFFBCF81E0F9CF82E0F7CF1F93E3
:10053000CF93DF93C82F162F442329F0413009F4BD
:1005400038C080E01BC06230E0F70E946302813057
:1005500021F061E08C2F0E9402022C2F30E0F90183
:10056000EE58FF4F8491F901E255FF4FD491F90104
:10057000E656FF4FC491C11105C081E0DF91CF91D4
:100580001F91089581110E94D901EC2FF0E0EE0F28
:10059000FF1FEA57FF4FA591B4918FB7F894EC91E4
:1005A000111105C0D095DE23DC938FBFE6CFDE2B83
:1005B000FBCF611109C00E94630260E08823E9F269
:1005C0008C2F0E940202D9CF613009F0BACF0E946D
:1005D0006302823091F262E0F3CFEF92FF920F93C9
:1005E0001F93CF93DF93C9E2D1E08DE1E82E81E044
:1005F000F82E01E111E081E0C533D80799F4C9E094
:10060000D1E001E011E0E1E0C131DE07E9F09991CC
:10061000F80181918F0162E0913009F060E00E9461
:100620000202F1CF4991F70161917F01F8018191B7
:100630008F010E9497028111DECFDF91CF911F9130
:100640000F91FF90EF90089581E0F7CF3F924F9286
:100650005F926F927F928F929F92AF92BF92CF9252
:10066000DF92EF92FF920F931F93CF93DF93CDB75B
:10067000DEB76DB67EB6C09069015C2C811101C0F9
:10068000550C052D10E02DB73EB7201B310B0FB6D2
:10069000F8943EBF0FBE2DBFEDB7FEB731967F0178
:1006A000A1E5B1E02FEF4F0191E5A92E91E0B92E20
:1006B000D12C813039F130916901CD0181559140C2
:1006C0003817190609F00CF449C08D918830B8F438
:1006D000806480937C0080917A00806480937A00AB
:1006E00080917A0086FDFCCF90917800809179000E
:1006F000892798278927808391833296DCCF2083AE
:100700002183FBCFC501815591408C159D0534F5A2
:10071000F50121915F0130E0F901EE58FF4F84911E
:10072000F901E255FF4F4490F901E656FF4F34902E
:10073000332079F081110E94D901E32DF0E0EE0F12
:10074000FF1FE859FF4FA591B491EC914E2281E033
:1007500009F480E0F40181934F01D4CF809100012E
:100760009EE390930A0210920B0280930C02509227
:100770000D02850DF701A9E0B2E09D01295032403C
:10078000201731073CF4919115969C931597890F8A
:100790001196F3CFF801E25FFD4F81958083F80158
:1007A000E15FFD4F8CE3808366E0650D8AE092E0B7
:1007B0000E9499010FB6F8947EBE0FBE6DBEDF9108
:1007C000CF911F910F91FF90EF90DF90CF90BF904E
:1007D000AF909F908F907F906F905F904F903F90E1
:1007E00008951F920F920FB60F9211242F933F93EB
:1007F0004F935F936F937F938F939F93AF93BF9329
:10080000EF93FF938CE691E00E940A01FF91EF9134
:10081000BF91AF919F918F917F916F915F914F9118
:100820003F912F910F900FBE0F901F9018951F9220
:100830000F920FB60F9211242F938F939F93EF93E4
:10084000FF93E0917C01F0917D018081E091820134
:10085000F091830182FD1BC09081809185018F5FA3
:100860008F7320918601821741F0E0918501F0E0BD
:10087000E459FE4F958F80938501FF91EF919F91F1
:100880008F912F910F900FBE0F901F901895808120
:10089000F4CF1F920F920FB60F9211242F933F9314
:1008A0008F939F93AF93BF938091490190914A0199
:1008B000A0914B01B0914C013091480123E0230FEE
:1008C0002D3758F50196A11DB11D20934801809345
:1008D000490190934A01A0934B01B0934C01809140
:1008E0004D0190914E01A0914F01B09150010196A0
:1008F000A11DB11D80934D0190934E01A0934F0116
:10090000B0935001BF91AF919F918F913F912F91E3
:100910000F900FBE0F901F90189526E8230F029698
:10092000A11DB11DD2CFECE6F1E01382128288EE58
:1009300093E0A0E0B0E084839583A683B78389E346
:1009400091E09183808385EC90E09587848784ECA7
:1009500090E09787868780EC90E0918B808B81EC8C
:1009600090E0938B828B82EC90E0958B848B86EC6D
:1009700090E0978B868B118E128E138E148E0895B5
:10098000789484B5826084BD84B5816084BD85B56A
:10099000826085BD85B5816085BD80916E00816076
:1009A00080936E001092810080918100826080931C
:1009B000810080918100816080938100809180001E
:1009C0008160809380008091B10084608093B10049
:1009D0008091B00081608093B00080917A00846043
:1009E00080937A0080917A00826080937A0080916F
:1009F0007A00816080937A0080917A008068809389
:100A00007A001092C10080E280930902E0917C019B
:100A1000F0917D0182E08083E0917801F09179018D
:100A20001082E0917A01F0917B0180E18083109245
:100A30008401E0918001F091810186E08083E09162
:100A40007E01F0917F01808180618083E0917E0151
:100A5000F0917F01808188608083E0917E01F09138
:100A60007F01808180688083E0917E01F0917F0129
:100A700080818F7D80830E94ED0283E0882E9BEA37
:100A8000B92E20E0C22E20E0D22EAA24A39430E872
:100A9000932E8CE691E00E94EA00181619060CF0DD
:100AA000DCC0E0906B01E110D8C090924C02312C78
:100AB000F12CD0E0C0E08CE691E00E94EA0018162C
:100AC00019060CF066C08CE691E00E94C8002097E1
:100AD00059F58E3329F480934D02F12CC1E0D0E01A
:100AE0003110E9CF8CE691E00E94EA00892B19F7DA
:100AF0000AE010E08CE691E00E94EA001816190660
:100B0000D4F20E943E022B013C010E943E02641975
:100B1000750986099709683E734081059105A8F318
:100B20000150110939F7C7CF9E01215031092330F7
:100B3000310538F4FE01E35BFD4F8083F80E21960A
:100B4000CFCF2091500230E0A9014D5F5F4F4C178D
:100B50005D0784F7B9016B5F7F4FA9014C5F5F4F61
:100B6000C417D50751F4C35BDD4F8883EB01F194C3
:100B70008F11B6CFEE24E394B3CFEB018C3309F0A1
:100B8000AFCFC35BDD4F8883E901269633243394CE
:100B900092CF3320B9F0EE20B1F080914E028093D5
:100BA0002A028091500280932B02ECE2F2E030E0C6
:100BB00020E090E02817390734F445A141932F5FD6
:100BC0003F4FF8CFE12CE0926B01C0912A02C09315
:100BD000000180912B0280936901ACE2B2E0E1E573
:100BE000F1E090E09F0121553140281739071CF4AE
:100BF0002D912193F7CF8CE691E00E94EA00181620
:100C000019062CF48CE691E00E94C800F4CF1092F3
:100C10006A01E11004C06C2F81E00E94C6016C2FB4
:100C200080E00E94C60180916B01882309F44BC0CB
:100C3000809100018134E1F198F48034B9F0109290
:100C40006B01C114D10409F424CF0E94F60088235B
:100C500009F41FCF0E9400001CCFA0926A01E3CFCD
:100C6000843451F1853559F780E023C0C091690182
:100C70008C2F682D0E946B069111E1CFCB9DC12D69
:100C80001124C695D0E001E511E0F12CE12CEC1621
:100C9000FD06ACF6F8014181628180810E949702D5
:100CA0000D5F1F4F882359F2FFEFEF1AFF0AEFCFB6
:100CB00081E00E942603C3CF809169018111BFCFDB
:100CC0000E94ED02BCCF80916A01882309F4B9CF5C
:100CD00010926A01B6CF991B79E004C0991F96174C
:100CE00008F0961B881F7A95C9F780950895EE0F36
:0E0CF000FF1F0590F491E02D0994F894FFCFBA
:100CFE00FF0E0F101112131415000000000000005B
:100D0E000002030405060708090A0B0C0D0000007B
:100D1E0000000000000000000001010101010101BE
:100D2E000101010101000000002C018C00B90079C5
:080D3E0001EA00C800DC00001E
:107800000C94343C0C94513C0C94513C0C94513CE1
:107810000C94513C0C94513C0C94513C0C94513CB4
:107820000C94513C0C94513C0C94513C0C94513CA4
:107830000C94513C0C94513C0C94513C0C94513C94
:107840000C94513C0C94513C0C94513C0C94513C84
:107850000C94513C0C94513C0C94513C0C94513C74
:107860000C94513C0C94513C11241FBECFEFD8E036
:10787000DEBFCDBF11E0A0E0B1E0ECE9FFE702C060
:1078800005900D92A230B107D9F712E0A2E0B1E065
:1078900001C01D92AD30B107E1F70E942D3D0C945F
:1078A000CC3F0C94003C982F959595959595959582
:1078B000905D8F708A307CF0282F295A8091C0000B
:1078C00085FFFCCF9093C6008091C00085FFFCCF60
:1078D0002093C6000895282F205DF0CF982F809127
:1078E000C00085FFFCCF9093C6000895EF92FF92F1
:1078F0000F931F93EE24FF2487018091C00087FD22
:1079000017C00894E11CF11C011D111D81E4E8164B
:1079100082E4F8068FE0080780E0180770F3E09132
:107920000401F091050109958091C00087FFE9CF1E
:107930008091C6001F910F91FF90EF9008950E94D3
:10794000763C982F8091C00085FFFCCF9093C600B5
:1079500091362CF490330CF09053892F089597555D
:10796000892F08951F930E949F3C182F0E949F3CCF
:107970001295107F810F1F9108951F93182F882350
:1079800021F00E94763C1150E1F71F9108951F935A
:10799000182F0E94763C803249F0809103018F5F5E
:1079A000809303018530C1F01F9108958091C0003C
:1079B00085FFFCCF84E18093C6008091C00085FFE5
:1079C000FCCF1093C6008091C00085FFFCCF80E102
:1079D0008093C6001F910895E0910401F091050184
:1079E00009951F9108950E94763C803241F0809164
:1079F00003018F5F80930301853081F008958091AA
:107A0000C00085FFFCCF84E18093C6008091C00058
:107A100085FFFCCF80E18093C6000895E0910401CA
:107A2000F09105010995089540E951E08823A1F0FE
:107A30002D9A28EE33E0FA013197F1F721503040CA
:107A4000D1F72D9828EE33E0FA013197F1F7215064
:107A50003040D1F7815061F708953F924F925F9285
:107A60006F927F928F929F92AF92BF92CF92DF924E
:107A7000EF92FF920F931F93CF93DF93000080E16B
:107A80008093C4001092C50088E18093C10086E015
:107A90008093C2005098589A259A81E00E94143D24
:107AA00024E1F22E9EE1E92E85E9D82E0FE0C02ECA
:107AB00010E1B12EAA24A394B1E49B2EA6E58A2E50
:107AC000F2E57F2EE0E26E2E79E4572E63E5462E36
:107AD00050E5352E0E94763C8033B1F18133B9F107
:107AE000803409F46FC0813409F476C0823409F41B
:107AF00085C0853409F488C0803531F1823521F1A3
:107B0000813511F1853509F485C0863509F48DC0BC
:107B1000843609F496C0843709F403C1853709F423
:107B200072C1863709F466C0809103018F5F80932C
:107B30000301853079F6E0910401F0910501099582
:107B40000E94763C803351F60E94F33CC3CF0E94E2
:107B5000763C803249F78091C00085FFFCCFF092DF
:107B6000C6008091C00085FFFCCF9092C600809136
:107B7000C00085FFFCCF8092C6008091C00085FFC9
:107B8000FCCF7092C6008091C00085FFFCCF609250
:107B9000C6008091C00085FFFCCF5092C600809146
:107BA000C00085FFFCCF4092C6008091C00085FFD9
:107BB000FCCF3092C6008091C00085FFFCCFB09210
:107BC000C60088CF0E94763C863808F4BDCF0E945C
:107BD000763C0E94F33C7ECF0E94763C803809F4CC
:107BE0009CC0813809F40BC1823809F43CC1883942
:107BF00009F48FC080E00E94C73C6CCF84E10E94F2
:107C0000BD3C0E94F33C66CF85E00E94BD3C0E94D3
:107C1000F33C60CF0E94763C809306010E94763C44
:107C2000809307010E94F33C55CF0E94763C80333D
:107C300009F41DC183E00E94BD3C80E00E94C73C66
:107C400049CF0E94763C809309020E94763C809343
:107C5000080280910C028E7F80930C020E94763C79
:107C6000853409F415C18091080290910902892B8D
:107C700089F000E010E00E94763CF801E85FFE4FDA
:107C800080830F5F1F4F80910802909109020817AF
:107C9000190788F30E94763C803209F045CF809125
:107CA0000C0280FF01C16091060170910701660F0F
:107CB000771F7093070160930601A0910802B091AD
:107CC00009021097C9F0E8E0F1E09B01AD014E0F09
:107CD0005F1FF999FECF32BD21BD819180BDFA9A17
:107CE000F99A2F5F3F4FE417F50799F76A0F7B1F4B
:107CF00070930701609306018091C00085FFFCCF5F
:107D0000F092C6008091C00085FFFCCFB092C60003
:107D1000E1CE83E00E94C73CDDCE82E00E94C73CFA
:107D2000D9CE0E94763C809309020E94763C8093D3
:107D300008028091060190910701880F991F909386
:107D40000701809306010E94763C853409F4A6C0A1
:107D500080910C028E7F80930C020E94763C8032D0
:107D600009F0B8CE8091C00085FFFCCFF092C6002C
:107D7000609108027091090261157105B9F140E046
:107D800050E080910C02A82FA170B82FB27011C0E2
:107D9000BB2309F45CC0E0910601F0910701319624
:107DA000F0930701E09306014F5F5F4F46175707B7
:107DB000E8F4AA2369F3F999FECF209106013091E6
:107DC000070132BD21BDF89A90B58091C00085FFB2
:107DD000FCCF9093C6002F5F3F4F30930701209355
:107DE00006014F5F5F4F4617570718F38091C00099
:107DF00085FDE5CE8091C00085FFF8CFE0CE81E023
:107E00000E94C73C67CE0E94763C803209F08CCE3F
:107E10008091C00085FFFCCFF092C6008091C00029
:107E200085FFFCCFE092C6008091C00085FFFCCFAB
:107E3000D092C6008091C00085FFFCCFC092C600E2
:107E40008091C00085FFFCCFB092C60043CEE09188
:107E50000601F091070194918091C00085FFFCCF4D
:107E60009093C6009CCF80E10E94C73C33CE0E9415
:107E7000763C0E94763C182F0E94763C112309F430
:107E800083C0113009F484C08FE00E94C73C22CE29
:107E900080910C02816080930C02E5CE80910C02EF
:107EA000816080930C0259CF809107018823880F4D
:107EB000880B8A2180930B02809106019091070123
:107EC000880F991F90930701809306018091080203
:107ED00080FF09C080910802909109020196909359
:107EE000090280930802F894F999FECF1127E091D6
:107EF0000601F0910701C8E0D1E08091080290915D
:107F00000902103091F40091570001700130D9F34B
:107F100003E000935700E89500915700017001308D
:107F2000D9F301E100935700E89509901990009169
:107F3000570001700130D9F301E000935700E89534
:107F40001395103498F011270091570001700130FB
:107F5000D9F305E000935700E895009157000170B0
:107F60000130D9F301E100935700E895329602976A
:107F700009F0C7CF103011F00296E5CF112480919F
:107F8000C00085FFB9CEBCCE8EE10E94C73CA2CD19
:0C7F900085E90E94C73C9ECDF894FFCF0D
:027F9C00800063
:040000030000780081
:00000001FF
